{
  "contractName": "Survey",
  "abi": [
    {
      "inputs": [
        {
          "internalType": "bytes32[]",
          "name": "options_",
          "type": "bytes32[]"
        },
        {
          "internalType": "bytes32",
          "name": "surveyName",
          "type": "bytes32"
        }
      ],
      "name": "createVoteCard",
      "outputs": [],
      "stateMutability": "nonpayable",
      "type": "function"
    },
    {
      "inputs": [
        {
          "internalType": "bytes32",
          "name": "survey",
          "type": "bytes32"
        },
        {
          "internalType": "bytes32",
          "name": "option",
          "type": "bytes32"
        }
      ],
      "name": "vote",
      "outputs": [],
      "stateMutability": "nonpayable",
      "type": "function"
    },
    {
      "inputs": [
        {
          "internalType": "bytes32",
          "name": "survey",
          "type": "bytes32"
        }
      ],
      "name": "getPollOptions",
      "outputs": [
        {
          "internalType": "bytes32[]",
          "name": "",
          "type": "bytes32[]"
        }
      ],
      "stateMutability": "view",
      "type": "function"
    }
  ],
  "bytecode": "0x608060405234801561001057600080fd5b506106f1806100206000396000f3fe608060405234801561001057600080fd5b50600436106100415760003560e01c8063b9b2568714610046578063db3d9f1e14610062578063eeaaf19d14610092575b600080fd5b610060600480360381019061005b91906103dc565b6100ae565b005b61007c6004803603810190610077919061043c565b610121565b6040516100899190610527565b60405180910390f35b6100ac60048036038101906100a79190610549565b61018e565b005b60008060008381526020019081526020016000209050338160000160006101000a81548173ffffffffffffffffffffffffffffffffffffffff021916908373ffffffffffffffffffffffffffffffffffffffff160217905550838382600301919061011a9291906102cd565b5050505050565b606060008083815260200190815260200160002060030180548060200260200160405190810160405280929190818152602001828054801561018257602002820191906000526020600020905b81548152602001906001019080831161016e575b50505050509050919050565b600080600084815260200190815260200160002090508060020160003373ffffffffffffffffffffffffffffffffffffffff1673ffffffffffffffffffffffffffffffffffffffff16815260200190815260200160002060009054906101000a900460ff1615610233576040517f08c379a000000000000000000000000000000000000000000000000000000000815260040161022a9061060c565b60405180910390fd5b6001816001016000848152602001908152602001600020546102559190610665565b8160010160008481526020019081526020016000208190555060018160020160003373ffffffffffffffffffffffffffffffffffffffff1673ffffffffffffffffffffffffffffffffffffffff16815260200190815260200160002060006101000a81548160ff021916908315150217905550505050565b828054828255906000526020600020908101928215610309579160200282015b828111156103085782358255916020019190600101906102ed565b5b509050610316919061031a565b5090565b5b8082111561033357600081600090555060010161031b565b5090565b600080fd5b600080fd5b600080fd5b600080fd5b600080fd5b60008083601f84011261036657610365610341565b5b8235905067ffffffffffffffff81111561038357610382610346565b5b60208301915083602082028301111561039f5761039e61034b565b5b9250929050565b6000819050919050565b6103b9816103a6565b81146103c457600080fd5b50565b6000813590506103d6816103b0565b92915050565b6000806000604084860312156103f5576103f4610337565b5b600084013567ffffffffffffffff8111156104135761041261033c565b5b61041f86828701610350565b93509350506020610432868287016103c7565b9150509250925092565b60006020828403121561045257610451610337565b5b6000610460848285016103c7565b91505092915050565b600081519050919050565b600082825260208201905092915050565b6000819050602082019050919050565b61049e816103a6565b82525050565b60006104b08383610495565b60208301905092915050565b6000602082019050919050565b60006104d482610469565b6104de8185610474565b93506104e983610485565b8060005b8381101561051a57815161050188826104a4565b975061050c836104bc565b9250506001810190506104ed565b5085935050505092915050565b6000602082019050818103600083015261054181846104c9565b905092915050565b600080604083850312156105605761055f610337565b5b600061056e858286016103c7565b925050602061057f858286016103c7565b9150509250929050565b600082825260208201905092915050565b7f596f75206861766520616c726561647920766f74656420696e2074686973205060008201527f6f6c6c0000000000000000000000000000000000000000000000000000000000602082015250565b60006105f6602383610589565b91506106018261059a565b604082019050919050565b60006020820190508181036000830152610625816105e9565b9050919050565b6000819050919050565b7f4e487b7100000000000000000000000000000000000000000000000000000000600052601160045260246000fd5b60006106708261062c565b915061067b8361062c565b9250827fffffffffffffffffffffffffffffffffffffffffffffffffffffffffffffffff038211156106b0576106af610636565b5b82820190509291505056fea2646970667358221220d1198023a4c56cc0f357db0052a13b9af6f7dcb0e1f80779ab5d0fdda1595bde64736f6c634300080a0033",
  "immutableReferences": {},
  "source": "// SPDX-License-Identifier: GPL-3.0\npragma solidity ^0.8.4;\n\ncontract Survey {\n    //multiple surveys\n    //survey struct\n    //vote struct\n    mapping(bytes32 => PollCard) surveys;\n\n    struct PollCard {\n        address owner;\n        mapping(bytes32 => uint) votes;\n        mapping(address => bool) voted;\n        bytes32[] options;\n    }\n\n    function createVoteCard(bytes32[] calldata options_, bytes32 surveyName) external {\n        PollCard storage poll = surveys[surveyName];\n        poll.owner = msg.sender;\n        poll.options = options_;\n    }\n\n    function vote(bytes32 survey, bytes32 option) external {\n        PollCard storage poll = surveys[survey];\n        \n        require(!poll.voted[msg.sender], \"You have already voted in this Poll\");\n\n        poll.votes[option] = poll.votes[option] + 1;\n        poll.voted[msg.sender] = true;\n    }\n\n    function getPollOptions(bytes32 survey) external view returns(bytes32[] memory) {\n        return surveys[survey].options;\n    }\n}",
  "sourcePath": "/Users/matthewcroft/Web3Project/Web3Survey/contracts/Survey.sol",
  "compiler": {
    "name": "solc",
    "version": "0.8.10+commit.fc410830.Emscripten.clang"
  },
  "schemaVersion": "3.4.4",
  "updatedAt": "2022-03-04T21:20:38.940Z",
  "devdoc": {
    "kind": "dev",
    "methods": {},
    "version": 1
  },
  "userdoc": {
    "kind": "user",
    "methods": {},
    "version": 1
  }
}