{
  "contractName": "Survey",
  "abi": [
    {
      "inputs": [
        {
          "internalType": "bytes32",
          "name": "",
          "type": "bytes32"
        }
      ],
      "name": "surveys",
      "outputs": [
        {
          "internalType": "address",
          "name": "owner",
          "type": "address"
        }
      ],
      "stateMutability": "view",
      "type": "function",
      "constant": true
    },
    {
      "inputs": [
        {
          "internalType": "bytes32[]",
          "name": "options_",
          "type": "bytes32[]"
        },
        {
          "internalType": "bytes32",
          "name": "surveyName",
          "type": "bytes32"
        }
      ],
      "name": "createVoteCard",
      "outputs": [
        {
          "internalType": "bytes32",
          "name": "",
          "type": "bytes32"
        }
      ],
      "stateMutability": "nonpayable",
      "type": "function"
    },
    {
      "inputs": [
        {
          "internalType": "bytes32",
          "name": "survey",
          "type": "bytes32"
        },
        {
          "internalType": "bytes32",
          "name": "option",
          "type": "bytes32"
        }
      ],
      "name": "vote",
      "outputs": [],
      "stateMutability": "nonpayable",
      "type": "function"
    },
    {
      "inputs": [
        {
          "internalType": "bytes32",
          "name": "survey",
          "type": "bytes32"
        }
      ],
      "name": "getPollOptions",
      "outputs": [
        {
          "internalType": "bytes32[]",
          "name": "",
          "type": "bytes32[]"
        }
      ],
      "stateMutability": "view",
      "type": "function",
      "constant": true
    },
    {
      "inputs": [
        {
          "internalType": "bytes32",
          "name": "survey",
          "type": "bytes32"
        },
        {
          "internalType": "address",
          "name": "user",
          "type": "address"
        }
      ],
      "name": "getPollVotedUser",
      "outputs": [
        {
          "internalType": "bool",
          "name": "",
          "type": "bool"
        }
      ],
      "stateMutability": "view",
      "type": "function",
      "constant": true
    },
    {
      "inputs": [
        {
          "internalType": "bytes32",
          "name": "survey",
          "type": "bytes32"
        },
        {
          "internalType": "bytes32",
          "name": "option",
          "type": "bytes32"
        }
      ],
      "name": "getSurveyOptionResult",
      "outputs": [
        {
          "internalType": "uint256",
          "name": "",
          "type": "uint256"
        }
      ],
      "stateMutability": "view",
      "type": "function",
      "constant": true
    }
  ],
  "bytecode": "0x608060405234801561001057600080fd5b506109e7806100206000396000f3fe608060405234801561001057600080fd5b50600436106100625760003560e01c80631e7954a314610067578063a98f6f2e14610097578063b9b25687146100c7578063c0921364146100f7578063db3d9f1e14610127578063eeaaf19d14610157575b600080fd5b610081600480360381019061007c919061051b565b610173565b60405161008e9190610574565b60405180910390f35b6100b160048036038101906100ac919061058f565b6101a4565b6040516100be91906105fd565b60405180910390f35b6100e160048036038101906100dc919061067d565b6101e2565b6040516100ee91906106ec565b60405180910390f35b610111600480360381019061010c9190610733565b61025b565b60405161011e919061078e565b60405180910390f35b610141600480360381019061013c919061058f565b6102c5565b60405161014e9190610867565b60405180910390f35b610171600480360381019061016c919061051b565b610332565b005b6000806000848152602001908152602001600020600101600083815260200190815260200160002054905092915050565b60006020528060005260406000206000915090508060000160009054906101000a900473ffffffffffffffffffffffffffffffffffffffff16905081565b6000806000808481526020019081526020016000209050338160000160006101000a81548173ffffffffffffffffffffffffffffffffffffffff021916908373ffffffffffffffffffffffffffffffffffffffff160217905550848482600301919061024f929190610471565b50829150509392505050565b600080600084815260200190815260200160002060020160008373ffffffffffffffffffffffffffffffffffffffff1673ffffffffffffffffffffffffffffffffffffffff16815260200190815260200160002060009054906101000a900460ff16905092915050565b606060008083815260200190815260200160002060030180548060200260200160405190810160405280929190818152602001828054801561032657602002820191906000526020600020905b815481526020019060010190808311610312575b50505050509050919050565b600080600084815260200190815260200160002090508060020160003373ffffffffffffffffffffffffffffffffffffffff1673ffffffffffffffffffffffffffffffffffffffff16815260200190815260200160002060009054906101000a900460ff16156103d7576040517f08c379a00000000000000000000000000000000000000000000000000000000081526004016103ce9061090c565b60405180910390fd5b6001816001016000848152602001908152602001600020546103f9919061095b565b8160010160008481526020019081526020016000208190555060018160020160003373ffffffffffffffffffffffffffffffffffffffff1673ffffffffffffffffffffffffffffffffffffffff16815260200190815260200160002060006101000a81548160ff021916908315150217905550505050565b8280548282559060005260206000209081019282156104ad579160200282015b828111156104ac578235825591602001919060010190610491565b5b5090506104ba91906104be565b5090565b5b808211156104d75760008160009055506001016104bf565b5090565b600080fd5b600080fd5b6000819050919050565b6104f8816104e5565b811461050357600080fd5b50565b600081359050610515816104ef565b92915050565b60008060408385031215610532576105316104db565b5b600061054085828601610506565b925050602061055185828601610506565b9150509250929050565b6000819050919050565b61056e8161055b565b82525050565b60006020820190506105896000830184610565565b92915050565b6000602082840312156105a5576105a46104db565b5b60006105b384828501610506565b91505092915050565b600073ffffffffffffffffffffffffffffffffffffffff82169050919050565b60006105e7826105bc565b9050919050565b6105f7816105dc565b82525050565b600060208201905061061260008301846105ee565b92915050565b600080fd5b600080fd5b600080fd5b60008083601f84011261063d5761063c610618565b5b8235905067ffffffffffffffff81111561065a5761065961061d565b5b60208301915083602082028301111561067657610675610622565b5b9250929050565b600080600060408486031215610696576106956104db565b5b600084013567ffffffffffffffff8111156106b4576106b36104e0565b5b6106c086828701610627565b935093505060206106d386828701610506565b9150509250925092565b6106e6816104e5565b82525050565b600060208201905061070160008301846106dd565b92915050565b610710816105dc565b811461071b57600080fd5b50565b60008135905061072d81610707565b92915050565b6000806040838503121561074a576107496104db565b5b600061075885828601610506565b92505060206107698582860161071e565b9150509250929050565b60008115159050919050565b61078881610773565b82525050565b60006020820190506107a3600083018461077f565b92915050565b600081519050919050565b600082825260208201905092915050565b6000819050602082019050919050565b6107de816104e5565b82525050565b60006107f083836107d5565b60208301905092915050565b6000602082019050919050565b6000610814826107a9565b61081e81856107b4565b9350610829836107c5565b8060005b8381101561085a57815161084188826107e4565b975061084c836107fc565b92505060018101905061082d565b5085935050505092915050565b600060208201905081810360008301526108818184610809565b905092915050565b600082825260208201905092915050565b7f596f75206861766520616c726561647920766f74656420696e2074686973205060008201527f6f6c6c0000000000000000000000000000000000000000000000000000000000602082015250565b60006108f6602383610889565b91506109018261089a565b604082019050919050565b60006020820190508181036000830152610925816108e9565b9050919050565b7f4e487b7100000000000000000000000000000000000000000000000000000000600052601160045260246000fd5b60006109668261055b565b91506109718361055b565b9250827fffffffffffffffffffffffffffffffffffffffffffffffffffffffffffffffff038211156109a6576109a561092c565b5b82820190509291505056fea26469706673582212209a0da3356a408e3002678a3528ad82b478025beb0f8c9e759d261b4b64caef5864736f6c634300080a0033",
  "immutableReferences": {},
  "source": "// SPDX-License-Identifier: GPL-3.0\npragma solidity ^0.8.4;\n\ncontract Survey {\n    mapping(bytes32 => PollCard) public surveys;\n\n    struct PollCard {\n        address owner;\n        mapping(bytes32 => uint) votes;\n        mapping(address => bool) voted;\n        bytes32[] options;\n    }\n\n    function createVoteCard(bytes32[] calldata options_, bytes32 surveyName) external returns (bytes32) {\n        PollCard storage poll = surveys[surveyName];\n        poll.owner = msg.sender;\n        poll.options = options_;\n        return surveyName;\n    }\n\n    function vote(bytes32 survey, bytes32 option) external {\n        PollCard storage poll = surveys[survey];\n        \n        require(!poll.voted[msg.sender], \"You have already voted in this Poll\");\n\n        poll.votes[option] = poll.votes[option] + 1;\n        poll.voted[msg.sender] = true;\n    }\n\n    function getPollOptions(bytes32 survey) external view returns(bytes32[] memory) {\n        return surveys[survey].options;\n    }\n\n    function getPollVotedUser(bytes32 survey, address user) external view returns(bool) {\n        return surveys[survey].voted[user];\n    }\n\n    function getSurveyOptionResult(bytes32 survey, bytes32 option) external view returns(uint) {\n        return surveys[survey].votes[option];\n    }\n}",
  "sourcePath": "/Users/matthewcroft/Web3Project/Web3Survey/contracts/Survey.sol",
  "compiler": {
    "name": "solc",
    "version": "0.8.10+commit.fc410830.Emscripten.clang"
  },
  "schemaVersion": "3.4.4",
  "updatedAt": "2022-03-13T17:47:39.967Z",
  "networkType": "ethereum",
  "devdoc": {
    "kind": "dev",
    "methods": {},
    "version": 1
  },
  "userdoc": {
    "kind": "user",
    "methods": {},
    "version": 1
  }
}